{
  "_format": "hh-sol-artifact-1",
  "contractName": "CodeRegistry",
  "sourceName": "contracts/CodeRegistry.sol",
  "abi": [
    {
      "anonymous": false,
      "inputs": [
        {
          "indexed": true,
          "internalType": "string",
          "name": "hash",
          "type": "string"
        },
        {
          "indexed": true,
          "internalType": "address",
          "name": "author",
          "type": "address"
        },
        {
          "indexed": false,
          "internalType": "uint256",
          "name": "timestamp",
          "type": "uint256"
        },
        {
          "indexed": false,
          "internalType": "string",
          "name": "metadata",
          "type": "string"
        }
      ],
      "name": "CodeRegistered",
      "type": "event"
    },
    {
      "inputs": [
        {
          "internalType": "uint256",
          "name": "index",
          "type": "uint256"
        }
      ],
      "name": "getRegisteredHashByIndex",
      "outputs": [
        {
          "internalType": "string",
          "name": "",
          "type": "string"
        }
      ],
      "stateMutability": "view",
      "type": "function"
    },
    {
      "inputs": [],
      "name": "getRegistrationCount",
      "outputs": [
        {
          "internalType": "uint256",
          "name": "",
          "type": "uint256"
        }
      ],
      "stateMutability": "view",
      "type": "function"
    },
    {
      "inputs": [
        {
          "internalType": "string",
          "name": "hash",
          "type": "string"
        }
      ],
      "name": "isCodeRegistered",
      "outputs": [
        {
          "internalType": "bool",
          "name": "",
          "type": "bool"
        }
      ],
      "stateMutability": "view",
      "type": "function"
    },
    {
      "inputs": [
        {
          "internalType": "string",
          "name": "hash",
          "type": "string"
        },
        {
          "internalType": "string",
          "name": "metadata",
          "type": "string"
        }
      ],
      "name": "registerCode",
      "outputs": [],
      "stateMutability": "nonpayable",
      "type": "function"
    },
    {
      "inputs": [
        {
          "internalType": "uint256",
          "name": "",
          "type": "uint256"
        }
      ],
      "name": "registeredHashes",
      "outputs": [
        {
          "internalType": "string",
          "name": "",
          "type": "string"
        }
      ],
      "stateMutability": "view",
      "type": "function"
    },
    {
      "inputs": [
        {
          "internalType": "string",
          "name": "",
          "type": "string"
        }
      ],
      "name": "registrations",
      "outputs": [
        {
          "internalType": "address",
          "name": "author",
          "type": "address"
        },
        {
          "internalType": "uint256",
          "name": "timestamp",
          "type": "uint256"
        },
        {
          "internalType": "string",
          "name": "metadata",
          "type": "string"
        },
        {
          "internalType": "bool",
          "name": "exists",
          "type": "bool"
        }
      ],
      "stateMutability": "view",
      "type": "function"
    },
    {
      "inputs": [
        {
          "internalType": "string",
          "name": "hash",
          "type": "string"
        }
      ],
      "name": "verifyCode",
      "outputs": [
        {
          "internalType": "address",
          "name": "author",
          "type": "address"
        },
        {
          "internalType": "uint256",
          "name": "timestamp",
          "type": "uint256"
        },
        {
          "internalType": "string",
          "name": "metadata",
          "type": "string"
        }
      ],
      "stateMutability": "view",
      "type": "function"
    }
  ],
  "bytecode": "0x608060405234801561001057600080fd5b50611300806100206000396000f3fe608060405234801561001057600080fd5b506004361061007d5760003560e01c80637c3259221161005b5780637c32592214610102578063951f18ab14610132578063a05b1b3614610162578063a5ba7b4c1461017e5761007d565b80632885a44d146100825780632f9ff863146100b257806359bfaee1146100e4575b600080fd5b61009c6004803603810190610097919061091e565b6101b1565b6040516100a991906109db565b60405180910390f35b6100cc60048036038101906100c79190610b32565b6102a8565b6040516100db93929190610bcb565b60405180910390f35b6100ec610471565b6040516100f99190610c09565b60405180910390f35b61011c6004803603810190610117919061091e565b61047e565b60405161012991906109db565b60405180910390f35b61014c60048036038101906101479190610b32565b61052a565b6040516101599190610c3f565b60405180910390f35b61017c60048036038101906101779190610c5a565b610561565b005b61019860048036038101906101939190610b32565b6107d9565b6040516101a89493929190610cd2565b60405180910390f35b606060018054905082106101fa576040517f08c379a00000000000000000000000000000000000000000000000000000000081526004016101f190610d6a565b60405180910390fd5b6001828154811061020e5761020d610d8a565b5b90600052602060002001805461022390610de8565b80601f016020809104026020016040519081016040528092919081815260200182805461024f90610de8565b801561029c5780601f106102715761010080835404028352916020019161029c565b820191906000526020600020905b81548152906001019060200180831161027f57829003601f168201915b50505050509050919050565b60008060606000846040516102bd9190610e55565b908152602001604051809103902060030160009054906101000a900460ff1661031b576040517f08c379a000000000000000000000000000000000000000000000000000000000815260040161031290610eb8565b60405180910390fd5b6000808560405161032c9190610e55565b90815260200160405180910390206040518060800160405290816000820160009054906101000a900473ffffffffffffffffffffffffffffffffffffffff1673ffffffffffffffffffffffffffffffffffffffff1673ffffffffffffffffffffffffffffffffffffffff168152602001600182015481526020016002820180546103b590610de8565b80601f01602080910402602001604051908101604052809291908181526020018280546103e190610de8565b801561042e5780601f106104035761010080835404028352916020019161042e565b820191906000526020600020905b81548152906001019060200180831161041157829003601f168201915b505050505081526020016003820160009054906101000a900460ff1615151515815250509050806000015181602001518260400151935093509350509193909250565b6000600180549050905090565b6001818154811061048e57600080fd5b9060005260206000200160009150905080546104a990610de8565b80601f01602080910402602001604051908101604052809291908181526020018280546104d590610de8565b80156105225780601f106104f757610100808354040283529160200191610522565b820191906000526020600020905b81548152906001019060200180831161050557829003601f168201915b505050505081565b6000808260405161053b9190610e55565b908152602001604051809103902060030160009054906101000a900460ff169050919050565b6000826040516105719190610e55565b908152602001604051809103902060030160009054906101000a900460ff16156105d0576040517f08c379a00000000000000000000000000000000000000000000000000000000081526004016105c790610f24565b60405180910390fd5b6000825111610614576040517f08c379a000000000000000000000000000000000000000000000000000000000815260040161060b90610f90565b60405180910390fd5b6000815111610658576040517f08c379a000000000000000000000000000000000000000000000000000000000815260040161064f90610ffc565b60405180910390fd5b60405180608001604052803373ffffffffffffffffffffffffffffffffffffffff168152602001428152602001828152602001600115158152506000836040516106a29190610e55565b908152602001604051809103902060008201518160000160006101000a81548173ffffffffffffffffffffffffffffffffffffffff021916908373ffffffffffffffffffffffffffffffffffffffff16021790555060208201518160010155604082015181600201908161071691906111c8565b5060608201518160030160006101000a81548160ff02191690831515021790555090505060018290806001815401808255809150506001900390600052602060002001600090919091909150908161076e91906111c8565b503373ffffffffffffffffffffffffffffffffffffffff16826040516107949190610e55565b60405180910390207fca2d969233ee95d39ec231394369e9c7278a1b14a86e3eced4c76128c1d439b642846040516107cd92919061129a565b60405180910390a35050565b6000818051602081018201805184825260208301602085012081835280955050505050506000915090508060000160009054906101000a900473ffffffffffffffffffffffffffffffffffffffff169080600101549080600201805461083e90610de8565b80601f016020809104026020016040519081016040528092919081815260200182805461086a90610de8565b80156108b75780601f1061088c576101008083540402835291602001916108b7565b820191906000526020600020905b81548152906001019060200180831161089a57829003601f168201915b5050505050908060030160009054906101000a900460ff16905084565b6000604051905090565b600080fd5b600080fd5b6000819050919050565b6108fb816108e8565b811461090657600080fd5b50565b600081359050610918816108f2565b92915050565b600060208284031215610934576109336108de565b5b600061094284828501610909565b91505092915050565b600081519050919050565b600082825260208201905092915050565b60005b8381101561098557808201518184015260208101905061096a565b60008484015250505050565b6000601f19601f8301169050919050565b60006109ad8261094b565b6109b78185610956565b93506109c7818560208601610967565b6109d081610991565b840191505092915050565b600060208201905081810360008301526109f581846109a2565b905092915050565b600080fd5b600080fd5b7f4e487b7100000000000000000000000000000000000000000000000000000000600052604160045260246000fd5b610a3f82610991565b810181811067ffffffffffffffff82111715610a5e57610a5d610a07565b5b80604052505050565b6000610a716108d4565b9050610a7d8282610a36565b919050565b600067ffffffffffffffff821115610a9d57610a9c610a07565b5b610aa682610991565b9050602081019050919050565b82818337600083830152505050565b6000610ad5610ad084610a82565b610a67565b905082815260208101848484011115610af157610af0610a02565b5b610afc848285610ab3565b509392505050565b600082601f830112610b1957610b186109fd565b5b8135610b29848260208601610ac2565b91505092915050565b600060208284031215610b4857610b476108de565b5b600082013567ffffffffffffffff811115610b6657610b656108e3565b5b610b7284828501610b04565b91505092915050565b600073ffffffffffffffffffffffffffffffffffffffff82169050919050565b6000610ba682610b7b565b9050919050565b610bb681610b9b565b82525050565b610bc5816108e8565b82525050565b6000606082019050610be06000830186610bad565b610bed6020830185610bbc565b8181036040830152610bff81846109a2565b9050949350505050565b6000602082019050610c1e6000830184610bbc565b92915050565b60008115159050919050565b610c3981610c24565b82525050565b6000602082019050610c546000830184610c30565b92915050565b60008060408385031215610c7157610c706108de565b5b600083013567ffffffffffffffff811115610c8f57610c8e6108e3565b5b610c9b85828601610b04565b925050602083013567ffffffffffffffff811115610cbc57610cbb6108e3565b5b610cc885828601610b04565b9150509250929050565b6000608082019050610ce76000830187610bad565b610cf46020830186610bbc565b8181036040830152610d0681856109a2565b9050610d156060830184610c30565b95945050505050565b7f496e646578206f7574206f6620626f756e647300000000000000000000000000600082015250565b6000610d54601383610956565b9150610d5f82610d1e565b602082019050919050565b60006020820190508181036000830152610d8381610d47565b9050919050565b7f4e487b7100000000000000000000000000000000000000000000000000000000600052603260045260246000fd5b7f4e487b7100000000000000000000000000000000000000000000000000000000600052602260045260246000fd5b60006002820490506001821680610e0057607f821691505b602082108103610e1357610e12610db9565b5b50919050565b600081905092915050565b6000610e2f8261094b565b610e398185610e19565b9350610e49818560208601610967565b80840191505092915050565b6000610e618284610e24565b915081905092915050565b7f436f64652068617368206e6f7420666f756e6400000000000000000000000000600082015250565b6000610ea2601383610956565b9150610ead82610e6c565b602082019050919050565b60006020820190508181036000830152610ed181610e95565b9050919050565b7f436f6465206861736820616c7265616479207265676973746572656400000000600082015250565b6000610f0e601c83610956565b9150610f1982610ed8565b602082019050919050565b60006020820190508181036000830152610f3d81610f01565b9050919050565b7f486173682063616e6e6f7420626520656d707479000000000000000000000000600082015250565b6000610f7a601483610956565b9150610f8582610f44565b602082019050919050565b60006020820190508181036000830152610fa981610f6d565b9050919050565b7f4d657461646174612063616e6e6f7420626520656d7074790000000000000000600082015250565b6000610fe6601883610956565b9150610ff182610fb0565b602082019050919050565b6000602082019050818103600083015261101581610fd9565b9050919050565b60008190508160005260206000209050919050565b60006020601f8301049050919050565b600082821b905092915050565b60006008830261107e7fffffffffffffffffffffffffffffffffffffffffffffffffffffffffffffffff82611041565b6110888683611041565b95508019841693508086168417925050509392505050565b6000819050919050565b60006110c56110c06110bb846108e8565b6110a0565b6108e8565b9050919050565b6000819050919050565b6110df836110aa565b6110f36110eb826110cc565b84845461104e565b825550505050565b600090565b6111086110fb565b6111138184846110d6565b505050565b5b818110156111375761112c600082611100565b600181019050611119565b5050565b601f82111561117c5761114d8161101c565b61115684611031565b81016020851015611165578190505b61117961117185611031565b830182611118565b50505b505050565b600082821c905092915050565b600061119f60001984600802611181565b1980831691505092915050565b60006111b8838361118e565b9150826002028217905092915050565b6111d18261094b565b67ffffffffffffffff8111156111ea576111e9610a07565b5b6111f48254610de8565b6111ff82828561113b565b600060209050601f8311600181146112325760008415611220578287015190505b61122a85826111ac565b865550611292565b601f1984166112408661101c565b60005b8281101561126857848901518255600182019150602085019450602081019050611243565b868310156112855784890151611281601f89168261118e565b8355505b6001600288020188555050505b505050505050565b60006040820190506112af6000830185610bbc565b81810360208301526112c181846109a2565b9050939250505056fea264697066735822122001b75cd70e9ca61adbcc07ec113ace1a701c965c82184e421384aacf0f180ec464736f6c63430008130033",
  "linkReferences": {},
  "deployedLinkReferences": {}
}